{
  "contractName": "Document",
  "abi": [
    {
      "inputs": [],
      "stateMutability": "nonpayable",
      "type": "constructor"
    },
    {
      "inputs": [
        {
          "internalType": "string",
          "name": "uuid",
          "type": "string"
        },
        {
          "internalType": "string",
          "name": "hash",
          "type": "string"
        }
      ],
      "name": "addDocument",
      "outputs": [],
      "stateMutability": "nonpayable",
      "type": "function"
    },
    {
      "inputs": [
        {
          "internalType": "string",
          "name": "uuid",
          "type": "string"
        }
      ],
      "name": "getDocument",
      "outputs": [
        {
          "internalType": "string",
          "name": "",
          "type": "string"
        },
        {
          "internalType": "string",
          "name": "",
          "type": "string"
        },
        {
          "internalType": "uint256",
          "name": "",
          "type": "uint256"
        }
      ],
      "stateMutability": "view",
      "type": "function",
      "constant": true
    },
    {
      "inputs": [],
      "name": "allDocuments",
      "outputs": [
        {
          "internalType": "string[]",
          "name": "",
          "type": "string[]"
        }
      ],
      "stateMutability": "view",
      "type": "function",
      "constant": true
    }
  ],
  "bytecode": "0x608060405234801561001057600080fd5b50336000806101000a81548173ffffffffffffffffffffffffffffffffffffffff021916908373ffffffffffffffffffffffffffffffffffffffff160217905550610c46806100606000396000f3fe608060405234801561001057600080fd5b50600436106100415760003560e01c80631b8c4ed1146100465780634d2b1978146100645780637ccb6a6414610080575b600080fd5b61004e6100b2565b60405161005b919061075b565b60405180910390f35b61007e600480360381019061007991906108c6565b61018b565b005b61009a6004803603810190610095919061093e565b6103cf565b6040516100a9939291906109ea565b60405180910390f35b60606002805480602002602001604051908101604052809291908181526020016000905b828210156101825783829060005260206000200180546100f590610a5e565b80601f016020809104026020016040519081016040528092919081815260200182805461012190610a5e565b801561016e5780601f106101435761010080835404028352916020019161016e565b820191906000526020600020905b81548152906001019060200180831161015157829003601f168201915b5050505050815260200190600101906100d6565b50505050905090565b60405160200161019a90610ac0565b60405160208183030381529060405280519060200120826040516020016101c19190610b06565b604051602081830303815290604052805190602001201415801561022f57506040516020016101ef90610b69565b60405160208183030381529060405280519060200120826040516020016102169190610b06565b6040516020818303038152906040528051906020012014155b8015610285575060405160200161024590610ac0565b604051602081830303815290604052805190602001208160405160200161026c9190610b06565b6040516020818303038152906040528051906020012014155b80156102be5750600060018360405161029e9190610b06565b908152602001604051809103902060000180546102ba90610a5e565b9050145b6102fd576040517f08c379a00000000000000000000000000000000000000000000000000000000081526004016102f490610bf0565b60405180910390fd5b8160018360405161030e9190610b06565b9081526020016040518091039020600001908051906020019061033292919061055d565b50806001836040516103449190610b06565b9081526020016040518091039020600101908051906020019061036892919061055d565b504260018360405161037a9190610b06565b9081526020016040518091039020600201819055506002829080600181540180825580915050600190039060005260206000200160009091909190915090805190602001906103ca92919061055d565b505050565b60608060006001846040516103e49190610b06565b90815260200160405180910390206000016001856040516104059190610b06565b90815260200160405180910390206001016001866040516104269190610b06565b90815260200160405180910390206002015482805461044490610a5e565b80601f016020809104026020016040519081016040528092919081815260200182805461047090610a5e565b80156104bd5780601f10610492576101008083540402835291602001916104bd565b820191906000526020600020905b8154815290600101906020018083116104a057829003601f168201915b505050505092508180546104d090610a5e565b80601f01602080910402602001604051908101604052809291908181526020018280546104fc90610a5e565b80156105495780601f1061051e57610100808354040283529160200191610549565b820191906000526020600020905b81548152906001019060200180831161052c57829003601f168201915b505050505091509250925092509193909250565b82805461056990610a5e565b90600052602060002090601f01602090048101928261058b57600085556105d2565b82601f106105a457805160ff19168380011785556105d2565b828001600101855582156105d2579182015b828111156105d15782518255916020019190600101906105b6565b5b5090506105df91906105e3565b5090565b5b808211156105fc5760008160009055506001016105e4565b5090565b600081519050919050565b600082825260208201905092915050565b6000819050602082019050919050565b600081519050919050565b600082825260208201905092915050565b60005b8381101561066657808201518184015260208101905061064b565b83811115610675576000848401525b50505050565b6000601f19601f8301169050919050565b60006106978261062c565b6106a18185610637565b93506106b1818560208601610648565b6106ba8161067b565b840191505092915050565b60006106d1838361068c565b905092915050565b6000602082019050919050565b60006106f182610600565b6106fb818561060b565b93508360208202850161070d8561061c565b8060005b85811015610749578484038952815161072a85826106c5565b9450610735836106d9565b925060208a01995050600181019050610711565b50829750879550505050505092915050565b6000602082019050818103600083015261077581846106e6565b905092915050565b6000604051905090565b600080fd5b600080fd5b600080fd5b600080fd5b7f4e487b7100000000000000000000000000000000000000000000000000000000600052604160045260246000fd5b6107d38261067b565b810181811067ffffffffffffffff821117156107f2576107f161079b565b5b80604052505050565b600061080561077d565b905061081182826107ca565b919050565b600067ffffffffffffffff8211156108315761083061079b565b5b61083a8261067b565b9050602081019050919050565b82818337600083830152505050565b600061086961086484610816565b6107fb565b90508281526020810184848401111561088557610884610796565b5b610890848285610847565b509392505050565b600082601f8301126108ad576108ac610791565b5b81356108bd848260208601610856565b91505092915050565b600080604083850312156108dd576108dc610787565b5b600083013567ffffffffffffffff8111156108fb576108fa61078c565b5b61090785828601610898565b925050602083013567ffffffffffffffff8111156109285761092761078c565b5b61093485828601610898565b9150509250929050565b60006020828403121561095457610953610787565b5b600082013567ffffffffffffffff8111156109725761097161078c565b5b61097e84828501610898565b91505092915050565b600082825260208201905092915050565b60006109a38261062c565b6109ad8185610987565b93506109bd818560208601610648565b6109c68161067b565b840191505092915050565b6000819050919050565b6109e4816109d1565b82525050565b60006060820190508181036000830152610a048186610998565b90508181036020830152610a188185610998565b9050610a2760408301846109db565b949350505050565b7f4e487b7100000000000000000000000000000000000000000000000000000000600052602260045260246000fd5b60006002820490506001821680610a7657607f821691505b602082108103610a8957610a88610a2f565b5b50919050565b600081905092915050565b50565b6000610aaa600083610a8f565b9150610ab582610a9a565b600082019050919050565b6000610acb82610a9d565b9150819050919050565b6000610ae08261062c565b610aea8185610a8f565b9350610afa818560208601610648565b80840191505092915050565b6000610b128284610ad5565b915081905092915050565b7f2000000000000000000000000000000000000000000000000000000000000000600082015250565b6000610b53600183610a8f565b9150610b5e82610b1d565b600182019050919050565b6000610b7482610b46565b9150819050919050565b7f65697468657220646f63756d656e7420616c7265616479206578697374206f7260008201527f2075756964206e756d62657220656e746572656420776173206e756c6c000000602082015250565b6000610bda603d83610987565b9150610be582610b7e565b604082019050919050565b60006020820190508181036000830152610c0981610bcd565b905091905056fea264697066735822122099017056c30aef2cd6abcd2f8392dc15b79888bb49ad2598c1e2160d88c989ac64736f6c634300080d0033",
  "immutableReferences": {},
  "source": "// SPDX-License-Identifier: MIT\npragma solidity >=0.4.22 <0.9.0;\npragma experimental ABIEncoderV2;\n\ncontract Document {\n    address admin;\n\n    mapping (string => Document) documents; // mapping of the structure document\n    string[] documentByUuid;\n\n\n    struct Document {\n        string uuid; // uuid of the document\n        string hash; // hash containing the informations of the document\n        uint timeStamp;\n    }\n\n    // constructor - runs once when contract is deployed\n    constructor() public {\n        admin = msg.sender;\n    }\n    // modifier to allow only admin to execute a function\n    modifier onlyAdmin() {\n        require(msg.sender == admin, \"Not the admin\");\n        _;\n    }\n    \n   \n\n    // function to add document in the blockchain\n    function addDocument(string memory uuid, string memory hash) public {\n\n        // ensure that no duplicate document save\n        require(keccak256(abi.encodePacked(uuid)) != keccak256(abi.encodePacked(\"\")) // uuid must be different of \"\" and \" \"\n            && keccak256(abi.encodePacked(uuid)) != keccak256(abi.encodePacked(\" \"))\n            && keccak256(abi.encodePacked(hash)) != keccak256(abi.encodePacked(\"\")) // hash must be different of \"\" \n            && bytes(documents[uuid].uuid).length == 0, \n            \"either document already exist or uuid number entered was null\");\n        \n        // save the data in the mapping object\n        documents[uuid].uuid = uuid;\n        documents[uuid].hash = hash;\n        documents[uuid].timeStamp = block.timestamp;\n        \n        // update the table of document\n        documentByUuid.push(uuid);\n    }\n\n  \n    // function to display details of document\n    function getDocument(string memory uuid) public view returns (string memory, string memory, uint) {\n        return (documents[uuid].uuid, documents[uuid].hash, documents[uuid].timeStamp);\n    }\n\n    // function to displays all documents\n    function allDocuments() public view returns (string[] memory) {\n        return documentByUuid;\n    }\n}\n\n\n\n\n\n\n\n\n",
  "sourcePath": "/home/toor/projet/goAfrica/polygon-hackathon-smartcontract/contracts/Document.sol",
  "compiler": {
    "name": "solc",
    "version": "0.8.13+commit.abaa5c0e.Emscripten.clang"
  },
  "schemaVersion": "3.4.11",
  "updatedAt": "2022-12-14T16:05:03.002Z",
  "networkType": "ethereum",
  "devdoc": {
    "kind": "dev",
    "methods": {},
    "version": 1
  },
  "userdoc": {
    "kind": "user",
    "methods": {},
    "version": 1
  }
}